:020000040800F2
:10000000380F0020113D0008450100084701000895
:100010004B0100084F0100085301000800000000D8
:10002000000000000000000000000000590100086E
:1000300057010008000000005B0100085D01000896
:100040006501000867010008690100086B010008EC
:100050006D0100086F0100087101000873010008BC
:100060007501000877010008790100087B0100088C
:100070007D0100087F01000881010008830100085C
:100080008501000887010008890100088B0100082C
:100090008D0100088F0100089101000893010008FC
:1000A0009501000897010008990100089B010008CC
:1000B0009D0100089F010008A1010008A30100089C
:1000C000A5010008A7010008A9010008AB0100086C
:1000D000AD010008AF010008B1010008B30100083C
:1000E000B5010008B7010008B9010008BB0100080C
:1000F000BD010008BF010008C1010008C3010008DC
:10010000C5010008C7010008CF010008D10100089F
:10011000D3010008D5010008D7010008D901000863
:10012000DB010008DD010008DF010008E101000833
:10013000DFF80CD007F072FE0048004743080008C3
:10014000380F0020704700BFFEE700BFFEE700BF8A
:10015000FEE700BFFEE770477047704710B500F03C
:1001600014FD10BD70477047704770477047704767
:1001700070477047704770477047704770477047C7
:1001800070477047704770477047704770477047B7
:1001900070477047704770477047704770477047A7
:1001A0007047704770477047704770477047704797
:1001B0007047704770477047704770477047704787
:1001C00070477047704710B505F097FB10BD70473A
:1001D0007047704770477047704770477047704767
:1001E0007047000010B5044604EB84004000F84955
:1001F0000860012003F0A1FB00BFF548006800285B
:10020000FBD103F09AFB10BD70B504460126002512
:1002100011E0F048806800F040060220FFF7E2FF9E
:1002200006E0EC48806800F040060220FFF7DAFFA5
:10023000002EF6D06D1CA542EBD370BD70B5044600
:1002400000250120E4490870E4490870E44804806E
:1002500013E007F0FDF90120FFF7D6FFE048008822
:10026000A04205DB012D03DCDD480480681CC5B21B
:10027000012D02DB0020D8490870D74800780028FB
:10028000E7D170BD10B50446D1480460012003F0E9
:1002900054FB00BFCE4800680028FBD103F04DFBA3
:1002A00010BD10B5BC2000F0AFFD012000F01AFD1C
:1002B000BF2000F0A9FD282000F071FE0520FFF707
:1002C00091FFBC2000F0A0FD022000F00BFDBF203C
:1002D00000F09AFDF12000F062FE032000F05FFEC6
:1002E0001920FFF7CFFFBC2000F08EFD022000F0A8
:1002F000F9FCBF2000F088FDB72000F050FEAA20D6
:1003000000F04DFE1920FFF7BDFFBC2000F07CFD82
:10031000062000F0E7FCBF2000F076FDB72000F0DB
:100320003EFEAA2000F03BFE002000F038FE002038
:1003300000F035FE0D2000F032FE002000F02FFE10
:100340000F20FFF79FFFBC2000F05EFD062000F0AD
:10035000C9FCBF2000F058FDB72000F020FEAA2005
:1003600000F01DFE002000F01AFE002000F017FE35
:100370000D2000F014FE002000F011FE0F20FFF70A
:1003800081FFBC2000F040FD062000F0ABFCBF2048
:1003900000F03AFDB72000F002FEAA2000F0FFFDB9
:1003A000002000F0FCFD002000F0F9FD0D2000F021
:1003B000F6FD002000F0F3FD0F20FFF763FFBC20E7
:1003C00000F022FD062000F08DFCBF2000F01CFD97
:1003D000B72000F0E4FDAA2000F0E1FD002000F0CD
:1003E000DEFD002000F0DBFD0D2000F0D8FD012037
:1003F00000F0D5FD5520FFF745FFBC2000F004FDBF
:10040000062000F06FFCBF2000F0FEFCB72000F0DB
:10041000C6FDAA2000F0C3FD002000F0C0FD0020B2
:1004200000F0BDFD0E2000F0BAFD002000F0B7FD89
:100430000F20FFF727FFBC2000F0E6FC062000F0AD
:1004400051FCBF2000F0E0FCB72000F0A8FDAA207E
:1004500000F0A5FD002000F0A2FD002000F09FFDAF
:100460000E2000F09CFD002000F099FD0F20FFF70A
:1004700009FFBC2000F0C8FC062000F033FCBF20C0
:1004800000F0C2FCB72000F08AFDAA2000F087FD32
:10049000002000F084FD002000F081FD0E2000F01F
:1004A0007EFD002000F07BFD0F20FFF7EBFEBC205F
:1004B00000F0AAFC062000F015FCBF2000F0A4FC10
:1004C000B72000F06CFDAA2000F069FD002000F0CC
:1004D00066FD002000F063FD0E2000F060FD0120AD
:1004E00000F05DFD5520FFF7CDFEBC2000F08CFC38
:1004F000022000F0F7FBBF2000F086FCB72000F0E0
:100500004EFDFF2000F04BFD6420FFF7BBFE10BD49
:10051000012000210EE0334A32F81120314B33F82C
:1005200010309A4203DD304B1880491C02E02E4BFC
:100530001980401C2D4A1288904203DA2B4A1288F7
:100540009142E8DB70472DE9FC4106460F4615460F
:100550002C4600208DF804000A20B4FBF0F100FBCB
:1005600011403030C0B28DF803000A20B4FBF0F423
:10057000B4FBF0F100FB11403030C0B28DF8020046
:100580000A20B4FBF0F4B4FBF0F100FB1140303072
:10059000C0B28DF801000A20B4FBF0F4B4FBF0F116
:1005A00000FB11403030C0B28DF800006A46394679
:1005B000304602F006F9BDE8FC812DE9F047074618
:1005C0000D460024A0460026A14600BF59E00000C9
:1005D000000000200010014006000020070000205D
:1005E00088000020E80000200A0000200800002009
:1005F000A819FF4921F81400084630F81400C2B2C7
:10060000084630F81400C1B20023B62001F0C7FD3F
:100610009E21522007F0CCFA814609E09E2152200B
:1006200007F0C6FA8146F3A23221142002F0C9F87D
:10063000B9F1700FF2D107F01FFBF249F24A1288AC
:1006400021F812000846F049098830F811207D2170
:100650000320FFF778FFEC480088401CEA49088037
:1006600022465A210320FFF76EFFAA1932210320E8
:10067000FFF769FF0120FFF7C7FD761C641C08F136
:100680000108B845B4DBBDE8F08710B507F0DBFA28
:10069000DE4801780A20FFF790FFFFF739FF0020BE
:1006A000D9490880D248DA49098830F81100D94977
:1006B0000880002308460088C2B208460088C1B2FC
:1006C000B62001F06CFD10BD10B503F0C3FDD2499A
:1006D0000870084600782A2804D1D04803F0FEFDAF
:1006E000CD490870CC4800782A2807D1CB49B1F809
:1006F0004C10080404F089F8C7490870C64800780F
:100700002A2805D14FF4006004F033F8C24908707C
:10071000C14800782A2804D1002004F068F8BE49B6
:100720000870BD48007810BD08B50121152002F001
:100730007CFF4020ADF8000048208DF8030069469A
:10074000B74802F0B3FA4FF4C070ADF8000048208B
:100750008DF803006946B34802F0A8FA08BD10B549
:10076000042003F0B7F8B04803F0C8F8002003F005
:10077000E4F8012003F0C6F810BD08B54FF4C060DE
:1007800002F00DFC31208DF8000000208DF80100F2
:100790008DF8020001208DF80300684602F004FC89
:1007A00003208DF8000001208DF8010000208DF855
:1007B000020001208DF80300684602F0F5FB0021DD
:1007C0004FF0006002F0B4FC08BD10B502F0C8FDA7
:1007D0004FF4803002F0E3FD02F020FE93490870F0
:1007E00008460078012826D1102002F0E9F90220FD
:1007F00002F0D0F9002002F052FE002002F061FE6B
:100800004FF4806002F054FE4FF4E0114FF480305A
:1008100002F028FE012002F031FE00BF392002F074
:10082000E1FD0028FAD0022002F02BFE00BF02F00A
:1008300031FE0828FBD1012144F2040002F0F5FE4C
:1008400010BD0EB500BF0124FFF7BFFFFFF795FFF6
:10085000FFF785FF01F01EF9FFF766FF07F0F3F9D8
:100860007348007858BB012072490870FFF72CFFCD
:100870006949087070480068040DFF22114610464F
:1008800001F0F3FE8CB9FF206C49087014206C490C
:1008900008706C4908706CA20021084602F01FF82D
:1008A00002E06420FFF7B0FCFBE7FF20644908701A
:1008B000644908706149087001205D490870FF2093
:1008C0005F4908705F4908705C49087005F000F9DD
:1008D000B0B1FF221146104601F0C7FEFF20574974
:1008E00008701420564908705649087056A2002115
:1008F000084601F0F4FF02E06420FFF785FCFBE707
:1009000054A23021002001F05CFF00204C49087007
:100910004C4908704949087051A24FF4AF71142036
:1009200001F0DDFFFF204649087046490870434941
:10093000087006F014FB00204C49087007E006F030
:1009400087FE0120FFF74EFC00203A490870394825
:1009500000780028F3D13A4908703A4908703749BD
:10096000087001F057FD2320FFF74EFC012440489A
:10097000006800F0800404BB0023FF22CDE90032B0
:10098000029314230A221146032001F012FDFFF7FF
:100990007CFEFF2300220092CDE901236E23642216
:1009A0000A21032001F005FD01F0CAFB0320FFF737
:1009B00019FCFFF776FC01F0A5FC00BF00221146F0
:1009C000FF2001F052FE3720FFF71EFC01F004FC6F
:1009D0006420FFF719FC01F095FC0022FF2110466E
:1009E00001F043FE3720FFF70FFCFF22002141E01A
:1009F0006001002073656E736F7220206572726FE4
:100A000072000000E8000020080000200E00002016
:100A10000A000020100000200400002098000020A0
:100A2000001001400008014040190100160000209C
:100A300005000020060000201800002036000020DD
:100A400038000020370000205344204552524F52B6
:100A50002100000057616974696E672E2E2E2E00EA
:100A60004D3133313642305F410000000700002035
:100A700008080140084601F0F8FD3720FFF7C4FBE5
:100A800000221146104601F0F0FD3720FFF7BCFBB5
:100A9000FF221146104601F0E8FD3720FFF7B4FBB6
:100AA00080221146104601F0E0FD3720FFF7ACFB35
:100AB00001F031FD3720FFF7A7FB0120FFF7BEFB58
:100AC0003720FFF7A1FB0220FFF7B8FB3720FFF725
:100AD0009BFB0320FFF7B2FB3720FFF795FB6DE789
:100AE0007CB5064600250024304601F039FA05465B
:100AF0002C4600208DF805000A20B4FBF0F100FB25
:100B000011403030C0B28DF804000A20B4FBF0F47C
:100B1000B4FBF0F100FB11403030C0B28DF803009F
:100B20000A20B4FBF0F4B4FBF0F100FB11403030CC
:100B3000C0B28DF802000A20B4FBF0F4B4FBF0F16F
:100B400000FB11403030C0B28DF801000A20B4FB28
:100B5000F0F4B4FBF0F100FB11403030C0B28DF87E
:100B600000006A4628215F2001F02BFE1E20FFF7BF
:100B70004BFB7CBD10B502F0C7F9FFF7FEFD01226B
:100B80001146294802F011FB10BD2848006820B129
:100B900026480068401E25490860704700B587B0A8
:100BA0000020ADF80400ADF806004FF40070ADF879
:100BB00008000020ADF80A0001A91D4802F08CFFD2
:100BC0004FF4E13003900020ADF81000ADF81200B2
:100BD000ADF81400ADF818000C20ADF8160003A90C
:100BE000134802F022FF0121114802F08CFF07B0E8
:100BF00000BD08B54FF40070ADF8000018208DF866
:100C0000030003208DF8020069460A4802F04EF8FE
:100C10004FF48060ADF8000004208DF803006946B1
:100C2000044802F043F808BD9AC302000000002007
:100C3000003801400008014010B50446FE48006835
:100C400040F00800FD49C1F80C080846D0F80C082F
:100C500020F00400C1F80C080846D0F80C0820F079
:100C60002000C1F80C082146F54802F0D3F8F248FC
:100C7000006840F02000F149C1F80C08EE48006817
:100C800020F0040000F10400C1F80C0810BD10B5FC
:100C90000446E948006820F00800E849C1F80C085B
:100CA0000846D0F80C0820F00400C1F80C080846EB
:100CB000D0F80C0820F02000C1F80C082146E048CC
:100CC00002F0A8F8DC48006840F02000DB49C1F8D9
:100CD0000C08D948006820F0040000F10400C1F8B5
:100CE0000C0810BD2DE9F04105460024EFB22E128C
:100CF000BA20FFF7CCFF0720FFF79EFFBA20FFF7CF
:100D0000C6FF0320FFF798FFBA20FFF7C0FF0720B8
:100D1000FFF792FF00BF2BE017F0800F12D1BA202F
:100D2000FFF7B5FF0520FFF787FFBA20FFF7AFFFFA
:100D30000120FFF781FFBA20FFF7A9FF0520FFF789
:100D40007BFF11E0BA20FFF7A2FF0720FFF774FF37
:100D5000BA20FFF79CFF0320FFF76EFFBA20FFF7D2
:100D600096FF0720FFF768FF7806070E601CC4B2E5
:100D7000082CD1DBBA20FFF78AFF0720FFF75CFFC2
:100D8000BA20FFF784FF0320FFF756FFBA20FFF7D2
:100D90007EFF0720FFF750FF00242BE016F0800FA6
:100DA00012D1BA20FFF773FF0520FFF745FFBA20E5
:100DB000FFF76DFF0120FFF73FFFBA20FFF767FF46
:100DC0000520FFF739FF11E0BA20FFF760FF072089
:100DD000FFF732FFBA20FFF75AFF0320FFF72CFF7F
:100DE000BA20FFF754FF0720FFF726FF7006060E14
:100DF000601CC4B2082CD1DBBA20FFF748FF0F20DB
:100E0000FFF71AFFBDE8F08170B504460025BA204F
:100E1000FFF73DFF0720FFF70FFFBA20FFF737FF6F
:100E20000520FFF709FFBA20FFF731FF0120FFF788
:100E300003FFBA20FFF72BFF0520FFF7FDFE00BFE1
:100E40002BE014F0800F12D1BA20FFF720FF05200D
:100E5000FFF7F2FEBA20FFF71AFF0120FFF7ECFEC2
:100E6000BA20FFF714FF0520FFF7E6FE11E0BA20D5
:100E7000FFF70DFF0720FFF7DFFEBA20FFF707FFA0
:100E80000320FFF7D9FEBA20FFF701FF0720FFF785
:100E9000D3FE6006040E681CC5B2082DD1DBBA2053
:100EA000FFF7F5FE0F20FFF7C7FE70BD70B5654870
:100EB00000886549098800EB012084B263480088F6
:100EC0006349098800EB012085B2624800886249C5
:100ED000098800EB012086B2B120FFF795FF20467C
:100EE000FFF700FFB220FFF78FFF2846FFF7FAFE5B
:100EF000B320FFF789FF3046FFF7F4FEB420FFF779
:100F000083FF56480088FFF7EDFEB520FFF77CFF12
:100F100053480088FFF7E6FEB620FFF775FF07206D
:100F2000FFF7E0FEDE20FFF76FFF0120FFF7DAFE9C
:100F3000D620FFF769FF0120FFF7D4FEB920FFF7A5
:100F400063FF0020FFF7CEFE0120FFF74BF9BA2028
:100F5000FFF75AFF48F21400FFF7C4FEBB20FFF76B
:100F600053FF0220FFF7BEFEB920FFF74DFF44F20A
:100F70000100FFF7B7FE0120FFF734F9B820FFF7B3
:100F800043FF0020FFF7AEFEB720FFF73DFF40F222
:100F90000970FFF7A7FE0520FFF724F970BD70B5B3
:100FA00004460025BA20FFF772FE0720FFF744FE33
:100FB000BA20FFF76CFE0320FFF73EFEBA20FFF7D2
:100FC00066FE0720FFF738FE00BF2BE014F0800F0D
:100FD00012D1BA20FFF75BFE0520FFF72DFEBA20E5
:100FE000FFF755FE0120FFF727FEBA20FFF74FFE5F
:100FF0000520FFF721FE11E0BA20FFF748FE072089
:10100000FFF71AFEBA20FFF742FE0320FFF714FE97
:10101000BA20FFF73CFE0720FFF70EFE6006040E25
:10102000681CC5B2082DD1DBBA20FFF730FE0F20B7
:10103000FFF702FE70BD00000C08014000000140F7
:10104000000C01402C0000202A0000202600002077
:101050002000002028000020220000202400002082
:101060001E00002010B5BC20FFF7CEFE0420FFF7C5
:1010700039FEBF20FFF7C8FEB920FFF790FFFF2021
:10108000FFF78DFF8320FFF78AFF6920FFF787FFB7
:10109000BC20FFF7B9FE0F20FFF724FEBF20FFF7AB
:1010A000B3FEBA20FFF77BFF3120FFF778FF002067
:1010B000FFF775FF1620FFF772FFCA20FFF76FFFDB
:1010C000B120FFF76CFF0A20FFF769FF0020FFF750
:1010D00066FF2820FFF763FF0220FFF760FF212053
:1010E000FFF75DFF2120FFF75AFF9A20FFF757FF18
:1010F0001A20FFF754FF8F20FFF751FFBC20FFF7A6
:1011000083FE5D20FFF7EEFDBF20FFF77DFED520BB
:10111000FFF745FF0020FFF742FF0020FFF73FFFEA
:101120000F20FFF73CFF0320FFF739FF3620FFF7C2
:1011300036FF0020FFF733FF0020FFF730FF1020BD
:10114000FFF72DFF0120FFF72AFF0020FFF727FF01
:101150000020FFF724FF0020FFF721FF1A20FFF7F0
:101160001EFF5020FFF71BFF4520FFF718FF002050
:10117000FFF715FF0020FFF712FF1320FFF70FFF07
:101180004420FFF70CFF3920FFF709FF4720FFF746
:1011900006FF0020FFF703FF0020FFF700FF0220FB
:1011A000FFF7FDFE0420FFF7FAFE0020FFF7F7FE31
:1011B0000020FFF7F4FE0020FFF7F1FE0020FFF70C
:1011C000EEFE0020FFF7EBFE0020FFF7E8FE002018
:1011D000FFF7E5FE0320FFF7E2FE0020FFF7DFFE4A
:1011E0000020FFF7DCFE0820FFF7D9FE8820FFF77C
:1011F000D6FE8820FFF7D3FE3720FFF7D0FE5F2012
:10120000FFF7CDFE1E20FFF7CAFE1820FFF7C7FE2E
:101210008820FFF7C4FE8820FFF7C1FE8520FFF776
:10122000BEFE8820FFF7BBFE8820FFF7B8FE4020F7
:10123000FFF7B5FE2F20FFF7B2FE6E20FFF7AFFEDF
:101240004820FFF7ACFE8820FFF7A9FE8820FFF7B3
:10125000A6FE8020FFF7A3FE8820FFF7A0FE8820CF
:10126000FFF79DFE2620FFF79AFE4F20FFF797FE1F
:101270000E20FFF794FE0820FFF791FE8820FFF76D
:101280008EFE8820FFF78BFE8420FFF788FE8820E3
:10129000FFF785FE8820FFF782FE5120FFF77FFED3
:1012A0003F20FFF77CFE7E20FFF779FE5820FFF7F6
:1012B00076FE8820FFF773FE8820FFF770FE8120FE
:1012C000FFF76DFE0020FFF76AFE0020FFF767FEC4
:1012D0000020FFF764FE0120FFF761FE0020FFF70A
:1012E0005EFE0020FFF75BFE0020FFF758FE0720A0
:1012F000FFF755FEF820FFF752FE0F20FFF74FFED5
:10130000FF20FFF74CFEFF20FFF749FE0720FFF705
:1013100046FEF820FFF743FE0F20FFF740FEFF20B8
:10132000FFF73DFEFF20FFF73AFE0020FFF737FEF4
:101330000020FFF734FE5A20FFF731FEBC20FFF7F4
:1013400063FD0220FFF7CEFCBF20FFF75DFD3A20D2
:10135000FFF725FE7020FFF722FEBC20FFF754FDAB
:101360000220FFF7BFFCBF20FFF74EFD3620FFF73E
:1013700016FEC020FFF713FEBC20FFF745FD03203B
:10138000FFF7B0FCBF20FFF73FFDB520FFF707FEDA
:101390001220FFF704FE1220FFF701FEBC20FFF72A
:1013A00033FD0B20FFF79EFCBF20FFF72DFDB12082
:1013B000FFF7F5FD1220FFF7F2FD8320FFF7EFFDA9
:1013C0007720FFF7ECFD0020FFF7E9FD1220FFF783
:1013D000E6FD1220FFF7E3FD1A20FFF7E0FD1A20DB
:1013E000FFF7DDFD0C20FFF7DAFD1A20FFF7D7FD30
:1013F000BC20FFF709FD0520FFF774FCBF20FFF7B5
:1014000003FDB320FFF7CBFD8320FFF7C8FD0020CD
:10141000FFF7C5FD3A20FFF7C2FD1720FFF7BFFD1C
:10142000BC20FFF7F1FC0220FFF75CFCBF20FFF7B8
:10143000EBFCB420FFF7B3FD0020FFF7B0FDBC20AC
:10144000FFF7E2FC0520FFF74DFCBF20FFF7DCFCB7
:10145000E320FFF7A4FD0F20FFF7A1FD0F20FFF70A
:101460009EFD0F20FFF79BFD0F20FFF798FDBC208E
:10147000FFF7CAFC0720FFF735FCBF20FFF7C4FCCD
:10148000C020FFF78CFD7320FFF789FD5020FFF788
:1014900086FD0020FFF783FD3420FFF780FDC42088
:1014A000FFF77DFD0020FFF77AFDBC20FFF7ACFCC5
:1014B0007F20FFF717FCBF20FFF7A6FCC120FFF736
:1014C0006EFD0120FFF76BFD0020FFF768FD0A208D
:1014D000FFF765FD1520FFF762FD1F20FFF75FFD99
:1014E0002A20FFF75CFD3520FFF759FD4220FFF76A
:1014F00056FD4C20FFF753FD5720FFF750FD6020AD
:10150000FFF74DFD6A20FFF74AFD7320FFF747FD07
:101510007B20FFF744FD8320FFF741FD8A20FFF782
:101520003EFD9120FFF73BFD9920FFF738FDA020FD
:10153000FFF735FDA720FFF732FDAD20FFF72FFDA8
:10154000B420FFF72CFDBA20FFF729FDC020FFF7DC
:1015500026FDC620FFF723FDCC20FFF720FDD2207B
:10156000FFF71DFDD820FFF71AFDDF20FFF717FD5D
:10157000E620FFF714FDEC20FFF711FDF320FFF745
:101580000EFDF820FFF70BFDFF20FFF708FD2220DE
:10159000FFF705FDE020FFF702FD3020FFF7FFFC1D
:1015A0004B20FFF7FCFC4320FFF7F9FC0120FFF77D
:1015B000F6FCAF20FFF7F3FC0A20FFF7F0FCC02099
:1015C000FFF7EDFC0020FFF7EAFC0920FFF7E7FC3E
:1015D0001320FFF7E4FC1C20FFF7E1FC2620FFF7B7
:1015E000DEFC2F20FFF7DBFC3720FFF7D8FC412083
:1015F000FFF7D5FC4920FFF7D2FC5220FFF7CFFCC4
:101600005B20FFF7CCFC6420FFF7C9FC6C20FFF7E0
:10161000C6FC7420FFF7C3FC7C20FFF7C0FC8420CD
:10162000FFF7BDFC8B20FFF7BAFC9220FFF7B7FC59
:101630009B20FFF7B4FCA220FFF7B1FCA920FFF725
:10164000AEFCB020FFF7ABFCB720FFF7A8FCBD2035
:10165000FFF7A5FCC320FFF7A2FCCA20FFF79FFC01
:10166000D120FFF79CFCD820FFF799FCE020FFF782
:1016700096FCE820FFF793FCEF20FFF790FCF820A2
:10168000FFF78DFCFF20FFF78AFC2220FFF787FC85
:101690005820FFF784FCBD20FFF781FCF420FFF702
:1016A0007EFC5A20FFF77BFCA520FFF778FCFA2090
:1016B000FFF775FC4C20FFF772FCC020FFF76FFCB2
:1016C0000020FFF76CFC0720FFF769FC0F20FFF7F5
:1016D00066FC1620FFF763FC1E20FFF760FC252048
:1016E000FFF75DFC2D20FFF75AFC3420FFF757FC75
:1016F0003C20FFF754FC4520FFF751FC4E20FFF73C
:101700004EFC5720FFF74BFC5F20FFF748FC68209A
:10171000FFF745FC7020FFF742FC7820FFF73FFC05
:101720008020FFF73CFC8720FFF739FC8E20FFF775
:1017300036FC9620FFF733FC9D20FFF730FCA420F9
:10174000FFF72DFCAB20FFF72AFCB320FFF727FCA7
:10175000B920FFF724FCC020FFF721FCC820FFF7C9
:101760001EFCCF20FFF71BFCD720FFF718FCE12061
:10177000FFF715FCE920FFF712FCF420FFF70FFC40
:10178000FF20FFF70CFC2220FFF709FC2220FFF7C7
:1017900006FC1720FFF703FCC920FFF700FC1C2004
:1017A000FFF7FDFBAD20FFF7FAFBF720FFF7F7FB94
:1017B000C920FFF7F4FBBC20FFF726FB0420FFF74E
:1017C00091FABF20FFF720FBC620FFF7E8FB41207E
:1017D000FFF7E5FBFF20FFF7E2FB7D20FFF7DFFBD4
:1017E000BC20FFF711FB0220FFF77CFABF20FFF7B8
:1017F0000BFBCC20FFF7D3FB0020FFF7D0FBBC2076
:10180000FFF702FB0220FFF76DFABF20FFF7FCFA9B
:10181000EA20FFF7C4FB7A20FFF7C1FBBC20FFF7EB
:10182000F3FA2420FFF75EFABF20FFF7EDFAE0207D
:10183000FFF7B5FB0020FFF7B2FB1020FFF7AFFB6F
:101840001820FFF7ACFB0E20FFF7A9FB1020FFF7D5
:10185000A6FB3C20FFF7A3FB2620FFF7A0FB3220CE
:10186000FFF79DFB0720FFF79AFB0C20FFF797FB84
:101870001020FFF794FB1320FFF791FB1620FFF7D2
:101880008EFB1420FFF78BFB1520FFF788FB13203E
:10189000FFF785FB1520FFF782FB0020FFF77FFB9A
:1018A0001020FFF77CFB1820FFF779FB0E20FFF7D5
:1018B00076FB1020FFF773FB3C20FFF770FB262020
:1018C000FFF76DFB3220FFF76AFB0720FFF767FB8E
:1018D0000C20FFF764FB1020FFF761FB1320FFF7DC
:1018E0005EFB1620FFF75BFB1420FFF758FB15206B
:1018F000FFF755FB1320FFF752FB1520FFF74FFBB7
:101900000120FFF74CFBBC20FFF77EFA0120FFF718
:10191000E9F9BF20FFF778FA1120FFF740FB142008
:10192000FEF760FCBC20FFF76FFA0120FFF7DAF941
:10193000BF20FFF769FA2920FFF731FB0520FEF7EA
:1019400051FC10BD70B5FD480088FD49098800EBC9
:10195000012084B2FB480088FB49098800EB012084
:1019600085B2FA480088FA49098800EB012086B25E
:10197000C020FFF749FA4FF48070FFF7B3F9142045
:10198000FEF730FCB120FFF73FFA2046FFF7AAF937
:10199000B220FFF739FA2846FFF7A4F9B320FFF782
:1019A00033FA3046FFF79EF9B420FFF72DFAE948E5
:1019B0000088FFF797F9B520FFF726FAE648008878
:1019C000FFF790F9B620FFF71FFA0720FFF78AF913
:1019D000DE20FFF719FA0120FFF784F9D620FFF780
:1019E00013FA0120FFF77EF9B920FFF70DFA002066
:1019F000FFF778F90120FEF7F5FBBA20FFF704FAAC
:101A000044F20A00FFF76EF9BB20FFF7FDF903204F
:101A1000FFF768F9B920FFF7F7F944F20100FFF783
:101A200061F90120FEF7DEFBB820FFF7EDF9002099
:101A3000FFF758F9B720FFF7E7F940F20270FFF718
:101A400051F90520FEF7CEFB70BD08B501211D2020
:101A500001F0EBFD0121C14801F0F7F94FF6FF70ED
:101A6000ADF8000010208DF8030003208DF802006F
:101A70006946BB4801F01AF93F20ADF8000010207C
:101A80008DF8030003208DF802006946B54801F087
:101A90000DF908BD2DE9F047B34800780005642131
:101AA00090FBF1F0A0F1010A504606F062F9814680
:101AB000484606F067F90446A3480088A449098807
:101AC0000844A5490988084485B29E4800889F4972
:101AD000098808449F490988084486B29948B0F8A3
:101AE0000080994807880520FEF77CFBFFF7ADFFD3
:101AF0000520FEF777FB9D48006820F001009C4917
:101B0000C1F80C089948006820F0040000F10400B6
:101B1000C1F80C089548006840F00800C1F80C08AE
:101B20009248006840F02000C1F80C088F48006817
:101B300040F010008D4908604FF00500FEF752FBA1
:101B40008A48006820F0010000F101008849C1F8CE
:101B50000C088648006840F01000C1F80C084FF0EF
:101B60001400FEF73FFB0120FFF791F81420FEF769
:101B700039FB0120FFF78BF81420FEF733FBF02030
:101B8000FFF785F80020FFF757F8E220FFF77FF80E
:101B90003120FFF751F80320FFF74EF80420FFF73C
:101BA0004BF8E020FFF773F80120FFF745F80A2013
:101BB000FEF718FBE020FFF76AF80320FFF73CF878
:101BC0001C20FEF70FFBE620FFF761F8C4F3074087
:101BD000FFF732F8C4F30720FFF72EF8E0B2FFF763
:101BE0002BF8B020FFF753F83420FFF725F800203A
:101BF000FFF722F857490988491EC1F30720FFF76C
:101C00001BF854490988491EC8B2FFF715F8524914
:101C10000988491EC1F30720FFF70EF84E490988CD
:101C2000491EC8B2FFF708F82320FFF705F8B420D3
:101C3000FFF72DF8711EC1F30720FEF7FDFF711E9F
:101C4000C8B2FEF7F9FF4FEA2820FEF7F5FF08F0CB
:101C5000FF00FEF7F1FF39480088C0B2FEF7ECFF45
:101C60000020FEF7E9FF0020FEF7E6FF0020FEF768
:101C7000E3FFB620FFF70BF82812FEF7DDFF691E21
:101C8000C8B2FEF7D9FF3812FEF7D6FFF8B2FEF75A
:101C9000D3FF2B480088C0B2FEF7CEFF0020FEF72E
:101CA000CBFF0020FEF7C8FF3620FEF7F0FF002034
:101CB000FEF7C2FF2920FEF7EAFF2A20FEF7E7FF22
:101CC0000020FEF7B9FF0020FEF7B6FF0120FEF767
:101CD000B3FF6720FEF7B0FF2B20FEF7D8FF0020F0
:101CE000FEF7AAFF0020FEF7A7FF0220FEF7A4FFE1
:101CF0007F20FEF7A1FFB820FEF7C9FF0F20FEF7F7
:101D00009BFF0120FEF798FFBA20FEF7C0FF0E20D0
:101D1000FEF792FF0520FEF765FABA20FEF7B7FF3F
:101D20000F20FEF789FF1420FEF75CFAFFF70AFE8A
:101D3000FFF798F9FFF7BAF8BDE8F0872C0000200C
:101D40002A0000202600002020000020280000207B
:101D500022000020240000201E000020000230008D
:101D6000000C0140000801401C0000200C0801404C
:101D70000000014070B504460025BA20FEF787FF39
:101D80000720FEF759FFBA20FEF781FF0320FEF778
:101D900053FFBA20FEF77BFF0720FEF74DFF00BF81
:101DA0002BE014F0800F12D1BA20FEF770FF05204F
:101DB000FEF742FFBA20FEF76AFF0120FEF73CFF64
:101DC000BA20FEF764FF0520FEF736FF11E0BA20C7
:101DD000FEF75DFF0720FEF72FFFBA20FEF757FF43
:101DE0000320FEF729FFBA20FEF751FF0720FEF778
:101DF00023FF6006040E681CC5B2082DD1DBBA2093
:101E0000FEF745FF0F20FEF717FF70BD70B50546C2
:101E10000E460024BA20FEF73AFF0720FEF70CFF1B
:101E2000BA20FEF734FF0320FEF706FFBA20FEF7C4
:101E30002EFF0720FEF700FF00BF2BE015F0800FFC
:101E400012D1BA20FEF723FF0520FEF7F5FEBA20D7
:101E5000FEF71DFF0120FEF7EFFEBA20FEF717FF89
:101E60000520FEF7E9FE11E0BA20FEF710FF07207B
:101E7000FEF7E2FEBA20FEF70AFF0320FEF7DCFEC3
:101E8000BA20FEF704FF0720FEF7D6FE6806050E0F
:101E9000601CC4B2082CD1DBBA20FEF7F8FE072084
:101EA000FEF7CAFEBA20FEF7F2FE0320FEF7C4FEDC
:101EB000BA20FEF7ECFE0720FEF7BEFE00242BE062
:101EC00016F0800F12D1BA20FEF7E1FE0520FEF7D2
:101ED000B3FEBA20FEF7DBFE0120FEF7ADFEBA200E
:101EE000FEF7D5FE0520FEF7A7FE11E0BA20FEF7AB
:101EF000CEFE0720FEF7A0FEBA20FEF7C8FE0320A4
:101F0000FEF79AFEBA20FEF7C2FE0720FEF794FE07
:101F10007006060E601CC4B2082CD1DBBA20FEF796
:101F2000B6FE0F20FEF788FE70BD08B54020ADF864
:101F3000000048208DF803006946FF4800F0B6FE17
:101F400008BD08B54020ADF8000001208DF8020062
:101F500010208DF803006946F74800F0A7FE08BD81
:101F60002DE9F04105464FF0FA080020F3490880BA
:101F7000FFF7DBFFFFF7D9FFBA20FEF788FE072047
:101F8000FEF75AFEBA20FEF782FE0520FEF754FE49
:101F9000BA20FEF77CFE0120FEF74EFEBA20FEF7C7
:101FA00076FE0520FEF748FE00242BE015F0800F9A
:101FB00012D1BA20FEF76BFE0520FEF73DFEBA20D7
:101FC000FEF765FE0120FEF737FEBA20FEF75FFE42
:101FD0000520FEF731FE11E0BA20FEF758FE07207B
:101FE000FEF72AFEBA20FEF752FE0320FEF724FE7B
:101FF000BA20FEF74CFE0720FEF71EFE6806050E0F
:10200000601CC4B2082CD1DBBA20FEF740FE0520CC
:10201000FEF712FEBA20FEF73AFE0120FEF70CFE94
:10202000BA20FEF734FE0520FEF706FE00242DE060
:1020300018F0800F12D1BA20FEF729FE0520FEF716
:10204000FBFDBA20FEF723FE0120FEF7F5FDBA20C6
:10205000FEF71DFE0520FEF7EFFD11E0BA20FEF7AA
:1020600016FE0720FEF7E8FDBA20FEF710FE03205B
:10207000FEF7E2FDBA20FEF70AFE0720FEF7DCFDC0
:102080004FEA48604FEA1068601CC4B2082CCFDBEE
:1020900000241BE0BA20FEF7FAFD0120FEF7CCFD7C
:1020A0000120FEF79FF87006060EBA20FEF7EFFD3E
:1020B0000520FEF7C1FD40219F4800F088FE304416
:1020C000C6B20120FEF78EF8601CC4B2082CE1DB1A
:1020D00000241BE0BA20FEF7DAFD0120FEF7ACFD7C
:1020E0000120FEF77FF87806070EBA20FEF7CFFD35
:1020F0000520FEF7A1FD40218F4800F068FE38441E
:10210000C7B20120FEF76EF8601CC4B2082CE1DBF8
:102110008A480780008806EB002088490880BA209A
:10212000FEF7B5FD0F20FEF787FDFFF70AFFFFF76B
:1021300008FF82480088C0B2BDE8F08101467047C0
:1021400010B5B920FEF7A3FD0020FEF7CBFDBA20A5
:10215000FEF725FF44F20A00FEF7C4FDBB20FEF7A0
:102160001EFF0220FEF7BEFDB920FEF718FF44F265
:102170000100FEF7B7FD0120FEF734F8B720FEF7A7
:1021800086FD40F25220FEF7ADFD10BD10B5B72020
:10219000FEF77DFD40F2D220FEF7A4FD10BD2DE933
:1021A000F04107460C4615461E46BC20FEF72CFEA5
:1021B0000420FEF797FDBF20FEF726FE3846FEF707
:1021C000EEFE2046FEF7EBFE2846FEF7E8FE304620
:1021D000FEF7E5FEBDE8F08110B5BC20FEF714FE69
:1021E00000210120FFF712FEBF20FEF70DFE0021A7
:1021F0002820FFF70BFE0120FDF7F4FFBC20FEF7BF
:1022000003FE00210120FFF701FEBF20FEF7FCFDC9
:1022100000211020FFF7FAFD0520FDF7E3FFBC20A9
:10222000FEF7F2FD00210120FFF7F0FDBF20FEF7D1
:10223000EBFD00210120FFF7E9FD1420FDF7D2FF9F
:10224000C020FEF7E1FD4FF48070FEF74BFD142037
:10225000FDF7C8FFB620FEF7D7FD0620FEF742FDCA
:10226000DE20FEF7D1FD0120FEF73CFDD620FEF773
:10227000CBFD0020FEF736FDB720FEF7C5FD40F28E
:102280004230FEF72FFDB820FEF7BEFD8020FEF79E
:1022900029FDB920FEF7B8FD0020FEF723FDBA2086
:1022A000FEF7B2FD44F20A00FEF71CFDBB20FEF76C
:1022B000ABFD0120FEF716FDB920FEF7A5FD0120BC
:1022C000FEF710FDB820FEF79FFD0020FEF70AFD87
:1022D000B720FEF799FD4FF44570FEF703FD14207B
:1022E000FDF780FF0120FEF7D2FC1420FDF77AFFF6
:1022F0001020FEF7CCFC0220FDF774FFE520FEF76E
:10230000C6FC10BD10B5FFF7C5FB10BD2DE9F05F91
:1023100004460D4616461F46A046A946B246BB4691
:102320002A20FEF7B4FC4FEA2820FEF785FC08F0CF
:10233000FF00FEF781FC03E00008014032000020AE
:102340004FEA2920FEF778FC09F0FF00FEF774FC45
:102350002B20FEF79CFC4FEA2A20FEF76DFC0AF0CA
:10236000FF00FEF769FC4FEA2B20FEF765FC0BF03F
:10237000FF00FEF761FCBDE8F09F10B52C20FEF7D2
:1023800086FC10BD2DE9F0410446C4F30745C4F3B3
:102390000726E7B2F9480078012808D12846FEF759
:1023A0004BFC3046FEF748FC3846FEF745FCBDE8DE
:1023B000F0812DE9FF5F04460D4616461F46DDE914
:1023C0000EAB3B46324629462046FFF79FFFFFF7FC
:1023D000D4FF4FF0000817E04FF000090CE0504622
:1023E000FEF72AFC5846FEF727FC1098FEF724FC5F
:1023F00009F101001FFA80F9B81B401C4845EEDCCA
:1024000008F101001FFA80F8281B401C4045E3DC5E
:10241000BDE8FF9F70B540F21F33002240F2DF118C
:102420001046FFF773FFFFF7A8FF002419E000250F
:1024300013E08020FEF700FC0020FEF7FDFB80206B
:10244000FEF7FAFB0020FEF7F7FB8020FEF7F4FB17
:102450000020FEF7F1FB681C85B2F02DE9DB601C63
:1024600084B2B4F5487FE2DB70BD70B540F21F3333
:10247000002240F2DF111046FFF748FFFFF77DFF13
:10248000002419E0002513E00020FEF7D5FB002012
:10249000FEF7D2FB0020FEF7CFFB8020FEF7CCFB3F
:1024A0008020FEF7C9FB8020FEF7C6FB681C85B2C2
:1024B000F02DE9DB601C84B2B4F5487FE2DB70BD2F
:1024C00070B540F21F33002240F2DF111046FFF7D3
:1024D0001DFFFFF752FF002419E0002513E08020C4
:1024E000FEF7AAFB8020FEF7A7FB8020FEF7A4FBE7
:1024F0000020FEF7A1FB0020FEF79EFB0020FEF768
:102500009BFB681C85B2F02DE9DB601C84B2B4F53E
:10251000487FE2DB70BD2DE9F04140F21F3300221D
:1025200040F2DF111046FFF7F1FEFFF726FF002013
:10253000804607460646002553E000240AE0304660
:10254000FEF77AFB0020FEF777FB0020FEF774FB16
:10255000601C84B2782CF2DBC5EB05204FF4487187
:1025600090FBF1F0C6B200240AE00020FEF764FB05
:102570003846FEF761FB0020FEF75EFB601C84B26C
:10258000782CF2DBC5EB05204FF4487190FBF1F09D
:10259000C7B200240AE00020FEF74EFB0020FEF741
:1025A0004BFB4046FEF748FB601C84B2782CF2DB04
:1025B000C5EB05204FF4487190FBF1F000F0FF08E7
:1025C00000240AE03046FEF737FB3846FEF734FBBE
:1025D0004046FEF731FB601C84B2782CF2DB681CAD
:1025E00085B2B5F5487FA8DBBDE8F08170B540F253
:1025F0001F33002240F2DF111046FFF787FEFFF77E
:10260000BCFE00242DE0002526E0B4F5877F01DD27
:10261000012000E0002040F21221884211DAA02DB2
:1026200001DD012000E00020B0F5A07F09DA0020E4
:10263000FEF702FB0020FEF7FFFA0020FEF7FCFA8F
:1026400008E08020FEF7F8FA8020FEF7F5FA8020F7
:10265000FEF7F2FA681C85B2B5F5F07FD5DB601C99
:1026600084B2B4F5487FCEDB70BD2DE9F04107465A
:102670000C461546002640F21F33002240F2DF11BF
:102680001046FFF743FEFFF778FE00BF09E038462B
:10269000FEF7D2FA2046FEF7CFFA2846FEF7CCFA2C
:1026A000761C37488642F2D3BDE8F08110B5FF2290
:1026B00080210020FFF7D9FF10BD2DE9FF5F0646FE
:1026C0000F46904699460E9C4B4642463946304648
:1026D000FFF71CFEFFF751FE4FF0000A1EE04FF01F
:1026E000000B12E014F8015B2846FEF7A5FA14F877
:1026F000015B2846FEF7A0FA14F8015B2846FEF7B6
:102700009BFA0BF101001FFA80FBA9EB0800401CAB
:102710005845E7DC0AF101001FFA80FAB81B401C9B
:102720005045DCDCBDE8FF9F2DE9F05F04460D4617
:102730001646A246AB460BF1170083B20AF10F0012
:1027400081B25A465046FFF7E1FDFFF716FE00271B
:1027500033E0B6F800904FF0000828E019F0010FC0
:1027600016D008480078FEF767FA07480078FEF7A9
:1027700063FA06480078FEF75FFA12E007000020CF
:1027800000DC050036000020370000203800002063
:10279000FF20FEF751FAFF20FEF74EFAFF20FEF76A
:1027A0004BFA4FEA690908F1010000F0FF08B8F19F
:1027B000100FD3DBB61C781CC7B2182FC9DBBDE8DD
:1027C000F09F2DE9F04105468846144611E0277830
:1027D000A7F12000C7B207EB4700594901EB0016EB
:1027E000324641462846FFF79FFF05F1100085B2AB
:1027F000641C20780028EAD1BDE8F0812DE9FF4F64
:1028000087B005460E461746984602950197CDF8C3
:102810001880B1461820DDF81880019F00FB087071
:10282000401E83B21020029D00FB0950401E81B261
:102830003A462846FFF76AFDFFF79FFD0020059006
:1028400047E01498B0F800A0D3460020039035E08C
:10285000DA46002004902AE01AF0010F12D000247A
:102860000DE038480078FEF7E7F937480078FEF7C2
:10287000E3F936480078FEF7DFF9601CC4B24C4536
:10288000EFDB0EE000240AE0FF20FEF7D5F9FF2081
:10289000FEF7D2F9FF20FEF7CFF9601CC4B24C4519
:1028A000F2DB4FEA6A0A0498401CC0B20490049814
:1028B0001028D1DB0398401CC0B2039006990398FE
:1028C0008842C5DB1498801C14900598401CC0B247
:1028D000059005981828B4DB0BB0BDE8F08F2DE902
:1028E000F84F06460F4614464FF001084FF0030B11
:1028F00003251CE094F80090A9F1200000F0FF09E6
:1029000009EB49000E4901EB001A5B463A4629469D
:102910003046CDF800A0FFF771FF102000FB0560E6
:1029200086B2641C102000FB05801FFA80F8207816
:1029300020B12801C0F5F0704045DBDCBDE8F88F20
:102940002C7F0008360000203700002038000020CF
:10295000016821F001010160002101604160816096
:10296000C160864A811A90425BD012DC844AA0EB97
:10297000020190423AD007DC824941181BD0142949
:1029800022D028297FD128E0142938D028297AD1CB
:102990003EE0B1F56C7F5DD006DCB1F5627F49D0D9
:1029A000B1F5677F6FD14DE0B1F5717F5AD0B1F5C8
:1029B000767F68D15FE072494439496841F00F0180
:1029C0006F4A443A51605FE06D494439496841F0CB
:1029D000F0016B4A443A516056E06949443949680C
:1029E00041F47061664A443A51604DE064494439AB
:1029F000496841F47041624A443A516044E0604998
:102A00004439496841F470215D4A443A51603BE0E1
:102A10005B494439496841F47001594A443A51606C
:102A200032E057494439496841F07061544A443AA8
:102A3000516029E05449096841F00F01534AC2F836
:102A4000041421E05049096841F0F0014F4AC2F8EE
:102A5000041419E04C49096841F470614B4AC2F80A
:102A6000041411E04849096841F47041474AC2F82A
:102A7000041409E007E04449096841F47021434A1D
:102A8000C2F8041400E000BF00BF704710B5002278
:102A9000026847F6F0739A430C6A8B6823430C690B
:102AA00023434C6923438C692343CC6923434C6AF9
:102AB00023438C6A23431A430260CB6843600B684C
:102AC00083604B68C36010BD00210160416081607C
:102AD000C160016141618161C161016241628162E4
:102AE000704721B1026842F00102026003E002680F
:102AF00022F00102026070471AB103680B430360C1
:102B000002E003688B43036070470146486880B267
:102B1000704701460020002211F0805F02D01C4B5C
:102B20001A6801E0194B1A680A4201D0012000E03E
:102B30000020704710F0805F02D01349086001E068
:102B400012494860704701460020002211F0805F62
:102B500002D00F4B1A6801E00C4B1A680A4201D0F0
:102B6000012000E00020704710F0805F02D006498D
:102B7000086001E00549486070470000800002409D
:102B800044000240F8FFFDBF040402400000024080
:102B9000000402401049096801F038010E4A116032
:102BA000114609680143116070470B49096821F01B
:102BB0000801094A11601146096801431160704714
:102BC0000549096821F01001034A1160114609689E
:102BD00001431160704700000020024010B5044618
:102BE000C549601A8C422FD009DCC448201810D087
:102BF000B0F5806F16D0B0F5006F4AD11BE0B0F58C
:102C0000806F2AD0B0F5006F30D0B0F5406F40D162
:102C100035E00121042000F022FD0021042000F015
:102C20001EFD37E00121082000F019FD00210820D9
:102C300000F015FD2EE00121102000F010FD002114
:102C4000102000F00CFD25E00121202000F007FD00
:102C50000021202000F003FD1CE00121402000F0B5
:102C6000FEFC0021402000F0FAFC13E0012180204E
:102C700000F0F5FC0021802000F0F1FC0AE00121C9
:102C8000080200F0ECFC00214FF4807000F0E7FC3B
:102C900000E000BF00BF10BD10B50121084600F0E4
:102CA000DEFC0021012000F0DAFC10BD2DE9F0412E
:102CB000024600250026002000230024002791F86A
:102CC00003C00CF00F0591F803C01CF0100F03D0E7
:102CD00091F802C04CEA0505B1F800C01CF0FF0FE6
:102CE00031D0146800202BE04FF0010C0CFA00F3F7
:102CF000B1F800C00CEA03069E4220D183004FF0D9
:102D00000F0C0CFA03F7BC4305FA03FC4CEA04046D
:102D100091F803C0BCF1280F06D14FF0010C0CFA5A
:102D200000FCC2F814C00AE091F803C0BCF1480FDF
:102D300005D14FF0010C0CFA00FCC2F810C0401C89
:102D40000828D1D31460B1F800C0BCF1FF0F34DD06
:102D5000546800202EE000F1080C4FF0010808FA3A
:102D60000CF3B1F800C00CEA03069E4221D18300A7
:102D70004FF00F0C0CFA03F7BC4305FA03FC4CEAC6
:102D8000040491F803C0BCF1280F05D100F1080C30
:102D900008FA0CF8C2F8148091F803C0BCF1480F8F
:102DA00007D100F1080C4FF0010808FA0CF8C2F83E
:102DB0001080401C0828CED35460BDE8F0814FF647
:102DC000FF710180022181700421C17070470246A9
:102DD000002093680B4201D0012000E000207047E2
:102DE0000146886880B2704702460020D3680B42D3
:102DF00001D0012000E0002070470146C86880B281
:102E0000704701617047416170470AB1016100E09C
:102E100041617047C16070474FF480320A4382615C
:102E20008161826182698269704702460020344B69
:102E300018684FF68073184040EA02100843304B80
:102E4000186070472F49C8617047F0B50A460023E3
:102E50000024002100252A4E7168C0F3034583B287
:102E600000F44016B6F5401F08D121F07061244EE1
:102E7000766826F07066224F7E6012E000F48016BD
:102E8000B6F5801F06D1032606FA05F4A14341F0EA
:102E9000706106E0460D360103FA06F6B14341F0D3
:102EA000706122B1460D360103FA06F63143144E25
:102EB0007160F0BD30B500228B071C0F0F2303FAA1
:102EC00004F20F4B08338C1053F8243093430C4C0E
:102ED00008348D1044F8253023468C1053F82430E4
:102EE0008C07240F00FA04F42343054C08348D109A
:102EF00044F8253030BD00000014014000F8FEBF4A
:102F000000000140000020420020411EF84A1160EC
:102F10006FF07042F749C1F884204FF0FF314FF055
:102F2000E022C2F880126FF07042F3490A6000BFDD
:102F300004E00022F14941F82020401C0F28F8D37A
:102F4000704700204FF02061ED4A116001464FF0BC
:102F5000E022C2F8081DEB49EB4A1160014602F17C
:102F60000402116002F10402116000BF05E00022BA
:102F7000E5490C3141F82020401C0328F7D30021FB
:102F8000E24A11604FF0FF314FF0E022C2F8281DF5
:102F9000DF4A11604FF0E022C2F8301D7047D94976
:102FA0000143D94A11607047F0B500210022002387
:102FB00000250F24C678EEB3D34E366806F4E066DB
:102FC000C6F5E0664FEA1621C1F1040524FA01F4C2
:102FD000467806FA05F1867806EA040646EA010113
:102FE0004FEA011106784FEA86764FEAD66601FA73
:102FF00006F1C24E07784FEAA70756F82720067851
:103000004FEA86764FEAD6674FF0FF0606FA07F3D7
:1030100022EA030201EA030142EA0102B74E0778FD
:103020004FEAA70746F82720067806F01F074FF05B
:10303000010600E00BE006FA07F607784FEA67178B
:103040004FF0E02C0CEB8707C7F800610BE0067827
:1030500006F01F070126BE40A54F90F800C04FEABA
:103060006C1C47F82C60F0BD00210170417081702C
:10307000C170704710B500F076FE10BD10B500F0BD
:1030800070FE10BD10B500F073FE10BD10B500F05D
:1030900071FE10BD10B50446200100F070FE10BD99
:1030A00010B500F06FFE10BD95480068C0F3093000
:1030B000704710B501460020002201F01F040123D3
:1030C00003FA04F28A4B80334C1153F82430134036
:1030D000934201D1012000E0002010BD8D4908601D
:1030E000704700F01F0201219140834A121F4311D3
:1030F00042F82310704782480068C0F30900704707
:1031000010B501460020002201F01F04012303FA3C
:1031100004F2794B7C334C1153F824301340934222
:1031200001D1012000E0002010BD7B4800687047FD
:103130007A4A0A4002437A4B1A6070477148001D70
:103140007149086070476F48401C6F4908607047BC
:1031500041B1744A126842EA00024FF0E023C3F81A
:10316000102D07E06F4A126822EA00024FF0E023B8
:10317000C3F8102D704710B5002200F01F04012382
:1031800003FA04F241B1614B1B6843EA02034FF0BA
:10319000E024C4F8243D07E05C4B1B6823EA0203EB
:1031A0004FF0E024C4F8243D10BDF0B503460C46B2
:1031B00015460020FF2200260021534F3F6807F4E8
:1031C000E067C7F5E0674FEA1721C1F1040022FA72
:1031D00001F204FA00F105EA020747EA01014FEAA9
:1031E000011103F0C0004FEA9010C3F301224FEA2F
:1031F000C20701FA07F14FEAC20C4FF0FF0707FAC6
:103200000CF6494F57F8207027EA0607DFF818C177
:103210004CF82070674657F8207047EA01074CF8D1
:103220002070F0BD10B50246002000230021910A55
:1032300001F00F01012404FA01F1344C246804EA7E
:1032400001038B4201D1012000E0002010BD0021CC
:1032500000F01F012A4A12684FF0010303FA01F33C
:1032600042EA03024FF0E023C3F8042D704710B583
:10327000002100F01F01224A1268A1F101034FF062
:10328000010404FA03F442EA04024FF0E023C3F815
:10329000042D10BD10B50246002000230021C2F30A
:1032A0008331012404FA01F1184C246804EA010373
:1032B0008B4201D1012000E0002010BD30B5014655
:1032C000002000220023C1F38142C1F3015312B94F
:1032D0000F4C206830E0012A2CD1144C24684FEAAE
:1032E000C30524FA05F0022B22D000F00F0023E0E2
:1032F00080E100E000E100E084E200E000E400E0C2
:1033000004ED00E00000FA050CED00E024ED00E023
:103310002CED00E000EF00E000ED00E080FFFF1F7B
:1033200008ED00E010ED00E018ED00E028ED00E011
:10333000C0B201E0074C206830BD014600200022E9
:10334000C1F3805212B9044B186801E0034B1868AE
:103350007047000030ED00E034ED00E038ED00E0B3
:10336000DA48006840F00100D84908600846406823
:10337000D7490840D549486008460068D549084003
:10338000D24908600846006820F48020086008469A
:10339000406820F4FE004860002088607047CB49F8
:1033A000096821F48031C94A11601146096821F485
:1033B00080211160B0F5803F03D0B0F5802F0ED191
:1033C00006E0C249096841F48031C04A116007E053
:1033D000BE49096841F4A021BC4A116000E000BF69
:1033E00000BF704710B501460022002300204A119B
:1033F000012A02D1B54C236806E0022A02D1B34C5F
:10340000236A01E0B14C636A01F01F020124944079
:103410001C4201D0012000E0002010BD70B5002446
:103420000025002600BF3120FFF7DCFF0646641CA4
:1034300016B9B4F5A06FF6D13120FFF7D3FF08B16C
:10344000012500E00025284670BD014600209F4A66
:10345000106820F0F80040EAC100106070479E49F3
:103460000860704702460020984B586820F47C1092
:1034700042EA01031843954B586070479649086625
:10348000704701460020914A506820F0030008432D
:10349000506070478D48406800F00C00704701464E
:1034A00000208A4A506820F0F000084350607047BE
:1034B00001460020854A506820F4E06008435060CF
:1034C000704701460020814A506820F4605040EA6D
:1034D000C1005060704729B17C4A527A02437B4B4D
:1034E0005A7206E0794A527AC343DBB21A40774BEC
:1034F0005A72704779490860704701460020734A44
:10350000506820F440400843506070470021744ADE
:1035100011706E4A82F82010012802D0042808D1C8
:1035200003E001216E4A117004E005216C4A11701C
:1035300000E000BF00BF70476A49086070476349F8
:10354000096A0143614A1162704767490860704720
:1035500030B500210022002400235C4D6D6805F089
:103560000C0121B1042905D0082923D105E05F4DC4
:10357000056022E05D4D05601FE0544D6D6805F467
:103580007012022505EB9242504D6D6805F48034AF
:103590001CB9574D554305600BE04C4D6D6815F453
:1035A000003F03D0524D5543056002E04F4D554357
:1035B000056002E04D4D056000BF00BF434D6D68E2
:1035C00005F0F00109094B4D6B5C0568DD40456075
:1035D0003E4D6D6805F4E061090A464D6B5C456837
:1035E000DD408560394D6D6805F46051C90A414D73
:1035F0006B5C4568DD40C560344D6D6805F4404145
:10360000890B3D4D6B5CC568B5FBF3F5056130BDBD
:1036100029B12E4A526902432C4B5A6104E02B4ACD
:1036200052698243294B5A61704729B1274A9269EE
:103630000243264B9A6104E0244A92698243234B59
:103640009A61704729B1214AD26902431F4BDA615E
:1036500004E01E4AD26982431C4BDA61704729B1EB
:103660001A4AD2680243194BDA6004E0174AD2685A
:103670008243164BDA60704729B1144A126902433B
:10368000124B1A6104E0114A126982430F4B1A610E
:1036900070471A49086070470F49C86470470B4962
:1036A000C87170470948406A40F080700749486215
:1036B000704701460020054A92680A4201D0012065
:1036C00000E00020704701498872704700100240F6
:1036D0000000FFF8FFFFF6FE00004242D800424221
:1036E00020100240800442423C04424200127A0010
:1036F00000093D00FC9000080C9100084004424283
:1037000000206749086048608860C8604862886235
:10371000C862644888630020C86370470021604A1B
:10372000516847F6FF6291430278C3681A43836881
:103730001A4303691A4343681A4343691A431143FE
:10374000574A516070470021017041608160C1603B
:1037500001614161704754490860704750490968E8
:1037600021F003014E4A11601146096801431160BE
:1037700070474B48006800F00300704729B1484A81
:10378000D26B0243464BDA6304E0454AD26B824374
:10379000434BDA6370474549086070470021404B4E
:1037A00002689A601A46D1686FF30A01D0E90123D2
:1037B0001A43C3681A4303691A431143384AD16054
:1037C00070470021016041608160C1600161704704
:1037D00033480069C0B27047014631480844406927
:1037E000704700212E4B02685A6242689A621A465C
:1037F000D16A21F0F701D0E902231A4303691A4381
:1038000043691A431143264AD16270474FF0FF3192
:103810000160002141608160C160016141617047C8
:103820001F48006B704722480068704720490860B5
:1038300070471B48806C70471E49086070471E49DE
:10384000086070471D49086070471D49086070474F
:103850001C49086070471C4908607047012181437A
:103860001A4A116070471A490860704701460020E3
:103870000B4A526B0A4201D0012000E00020704741
:1038800007498863704701460020054A526B0A4287
:1038900001D0012000E00020704701498863704793
:1038A00000800140FF07C000A00030428C0530427C
:1038B00080800140A0053042A4053042A805304276
:1038C000AC053042AC013042B0013042B40130426C
:1038D000B8013042042808D14FF0E021096941F0D5
:1038E00004014FF0E022116107E04FF0E021096987
:1038F00021F004014FF0E022116170474FF0E02108
:1039000048617047012808D14FF0E021096941F072
:1039100001014FF0E02211610EE0811C08D14FF04F
:10392000E021096921F001014FF0E022116103E07B
:1039300000214FF0E0229161704740B14FF0E0214B
:10394000096941F002014FF0E022116107E04FF0F8
:10395000E021096921F002014FF0E0221161704776
:103960004FF0E0208069704710B501460022002327
:103970000020CB10022B03D14FF0E024226902E09B
:103980004FF0E024E26901248C40144201D0012070
:1039900000E0002010BD000010B50446D949601AAF
:1039A0008C422BD006DCD848201813D0B0F5806F9D
:1039B00038D119E0B0F5806F2AD0B0F56C4F31D115
:1039C00001218803FFF74BFE00214FF48040FFF7F1
:1039D00046FE28E001214804FFF74EFE00214FF487
:1039E0000030FFF749FE1EE001218804FFF744FE86
:1039F00000214FF48020FFF73FFE14E00121C804AE
:103A0000FFF73AFE00214FF40020FFF735FE0AE0F1
:103A100001210805FFF730FE00214FF48010FFF769
:103A20002BFE00E000BF00BF10BD2DE9F04786B0BF
:103A300005460E460024A24600BF00BF00272F46C1
:103A40002C8A4CF6FF700440F08804432C82AC8929
:103A50004EF6F3100440B088318908437189084359
:103A60000443AC81AC8A4FF6FF400440B089044364
:103A7000AC8201A8FFF76CFDA448874202D1DDF8B3
:103A800010A001E0DDF80CA00AEBCA0000EB0A1060
:103A900031688900B0FBF1F86420B8FBF0F0040154
:103AA0002009642101FB1089322000EB0910B0FBD2
:103AB000F1F000F00F0004432C8106B0BDE8F08760
:103AC0004FF41651016000218180C18001810C21D9
:103AD000418100218181704710B502460020108A83
:103AE0004FF2FF0318400B884C8823438C882343F4
:103AF000CC8823431843108210BD002101804180EF
:103B00008180C180704721B1828942F40052828154
:103B100004E082894DF6FF731A4082817047F0B548
:103B2000034600240026002500201846C1F3421455
:103B300001F01F06012707FA06F5012C01D10C3010
:103B400004E0022C01D1103000E014301AB10768F3
:103B50002F43076002E00768AF430760F0BD10B570
:103B60001AB1838A0B43838204E0838ACC43A4B2D4
:103B70002340838210BD028A4FF6F0731A400282FE
:103B8000028A0A430282704782894FF2FF731A4009
:103B9000828182890A438281704721B1828942F001
:103BA0000202828104E082894FF6FD731A4082810D
:103BB0007047028A4FF6DF731A400282028A0A4374
:103BC0000282704721B1028A42F48042028204E0FC
:103BD000028A4BF6FF731A4002827047C1F3080253
:103BE0008280704701468888C0F308007047818949
:103BF00041F0010181817047028BD2B20283028BB6
:103C000042EA012202837047028B02F47F42028360
:103C1000028B0A430283704721B1828A42F020025C
:103C2000828204E0828A4FF6DF731A4082827047F4
:103C300021B1828A42F01002828204E0828A4FF629
:103C4000EF731A408282704721B1828A42F00802E3
:103C5000828204E0828A4FF6F7731A4082827047AC
:103C6000828A4FF6FB731A408282828A0A438282DA
:103C7000704721B1828A42F00202828204E0828A85
:103C80004FF6FD731A408282704702460020138867
:103C90000B4201D0012000E000207047CA4302809F
:103CA000704770B502460B46002400210025002015
:103CB000C3F3421503F01F01012606FA01F1012D9D
:103CC00002D19689314006E0022D02D1168A314098
:103CD00001E0968A31401C12012606FA04F4168887
:103CE000344011B10CB1012000E0002070BD10B5CE
:103CF000002200230A1201249440A3B2DC43048072
:103D000010BD0000004C004000BCFFBF0038014067
:103D1000004800473101000830BF704720BF70479E
:103D200040BF7047BFF36F8F7047BFF34F8F70472F
:103D3000BFF35F8F704701DF7047EFF31480704768
:103D400080F31488BFF36F8F7047EFF309807047DB
:103D500080F309887047EFF30880704780F3088884
:103D6000704762B6704772B67047EFF310807047C5
:103D700071B6704761B67047EFF31380704780F3F8
:103D800011887047EFF31280704740BA704700BA4D
:103D9000704700002DE9F05F4FF00108FFF7E9FCE4
:103DA000002804BF2520BDE8F09FFB4F7868042859
:103DB00074D0FA4C4FF0C00A00260220C4F808A0C4
:103DC000C4E900604FF48069C4E903692046FFF745
:103DD000E5FCF34D686B10F0450F03D1686B10F0F4
:103DE000450FFBD010F0040F3BD110F0010F42D172
:103DF00040F2FF50FFF744FD0020FFF7EDFCDFF835
:103E0000A4B3CBF800000420FFF7E6FCCBF80400D5
:103E10000820FFF7E1FCCBF808000C20FFF7DCFCE2
:103E2000CBF80C007868002818BF012803D00628BA
:103E300018BF022852D10320C4E900604020C4F812
:103E40001090C4E90206D548FFF7A8FC686B10F093
:103E5000450F03D1686B10F0450FFBD010F0040F35
:103E600006D003240420FFF70BFD2046BDE8F09F99
:103E700010F0010F06D001242046FFF701FD204677
:103E8000BDE8F09FFFF7A4FC032808D0102440F2FF
:103E9000FF50FFF7F5FC2046BDE8F09F51E040F2EF
:103EA000FF50FFF7EDFC0020FFF796FC10F4604F89
:103EB00008BF4FEA104811D010F4005F1CBF132058
:103EC000BDE8F09F10F4804F1CBF1020BDE8F09FAC
:103ED00010F4004F1CBF0F20BDE8F09F7868042845
:103EE0002FD01FFA88F0B860000420600920C4E9D0
:103EF000010AC4E90369A948FFF750FC686B10F098
:103F0000450F03D1686B10F0450FFBD010F0040F84
:103F1000A7D110F0010FAED140F2FF50FFF7B0FC77
:103F20000020FFF759FCA04C20600420FFF754FC50
:103F300060600820FFF750FCA0600C20FFF74CFCED
:103F4000E0602A20BDE8F09F70B5954905462A2417
:103F5000486B10F0450F03D1486B10F0450FFBD0B4
:103F600010F0040F05D003240420FFF789FC20463D
:103F700070BD10F0010F05D001242046FFF780FC32
:103F8000204670BDFFF724FCA84206D0102440F262
:103F9000FF50FFF775FC204670BD40F2FF50FFF761
:103FA0006FFC0020FFF718FC804908425ED010F03B
:103FB000004F1CBF1C2070BD10F0804F1CBF09209B
:103FC00070BD10F0005F1CBF0A2070BD10F0805F54
:103FD0001CBF0B2070BD10F0006F1CBF0C2070BD0B
:103FE00010F0806F1CBF0D2070BD10F0807F1CBFD3
:103FF0000E2070BD10F4000F1CBF0F2070BD10F418
:10400000800F1CBF102070BD10F4001F1CBF1120BA
:1040100070BD10F4801F1CBF122070BD10F4002F63
:104020001CBF132070BD10F4802F1CBF142070BD66
:1040300010F4003F1CBF152070BD10F4803F1CBF62
:10404000162070BD10F4004F1CBF172070BD10F477
:10405000804F1CBF182070BD10F4005F1CBF1920DA
:1040600070BD10F0080F1CBF1A2070BD204670BD37
:104070002DE9F84F4FF000084D48B2214546017038
:10408000C0F80480C0F80880C0F80C80C0F8108028
:10409000C2464646C0F81480FFF740FB0320FFF7F6
:1040A0005DFB0120FFF757FB3C4C4FF48067204637
:1040B00026606660A660C4E90367FFF76FFB42F203
:1040C00010798020FFF7D2FBD0B1B9F1000F1AD0E0
:1040D00040F2FF50FFF7D4FB4FF4D570206008206A
:1040E0004FF04009C4E901092C48C4E90367FFF710
:1040F00055FB2B4A42F21071506B4FF0370B0DE01D
:10410000B9F10109DDD1032440F2FF50FFF7B8FBFC
:104110002046BDE8F88F2248491E406B10F0450F3D
:1041200029D011B110F0040F28D00420FFF7A8FB0C
:10413000C4F80890C4E9006B1848C4E90367FFF7A6
:104140002DFB3720FFF700FFC4F80890C4E9006B8F
:104150001248C4E90367FFF721FB3720FFF7F4FE9D
:1041600000902A2802BF4AF4801A4AF0004A4FF60B
:10417000FF795FD06BE00029CDD1D6E710F0400F7A
:1041800014BF402040F2FF50FFF77AFB02480121A4
:104190004FF0804A4160D7E73C000020F801002042
:1041A00000800140D0010020C001002008E0FFFD98
:1041B000E00100204FF04008C4F80880C4E9006B1B
:1041C000FF48C4E90367FFF7E9FA3720FFF7BCFEB1
:1041D0002A2818BFBDE8F88F2920C4F800A0C4E938
:1041E0000108F748C4E90367FFF7D8FAF5494FF02B
:1041F0002A08486B10F0450F03D1486B10F0450FAB
:10420000FBD010F0040F07D04FF003080420FFF795
:1042100037FB4046BDE8F88F40F2FF50FFF730FB18
:104220000020CDF80080FFF7D7FA8046C00F05F1D7
:10423000010501D14D45BDD34D4524BF1B20BDE82F
:10424000F88F18F0804F02D0DF48022141600098BB
:10425000BDE8F88F38B501213020FFF7E6F94FF4BB
:10426000F850ADF8000003208DF8020018208DF8FA
:1042700003006946D548FEF719FD0420ADF800009B
:104280006946D348FEF712FD01218802FFF7C0F905
:1042900001210220FFF7BCF9FFF732FAFFF7E8FE31
:1042A0002A2818BF38BDFFF775FD04462A2818BF15
:1042B00038BD0120C749002208704A608A60CA6080
:1042C0000A6108464A61FFF729FA204638BD10B551
:1042D0002A240020FFF742FA204610BD2DE9F007FE
:1042E000B949BD4D2A244F6880F84E708968A0F8FE
:1042F0004C1029680A0E93090370C2F383034370BC
:1043000002F0030282700A0CC2700A0A0271417143
:10431000D5F804C04FEA1C610901C180C288CCF302
:10432000074101F00F0342EA1111C1800372CCF37F
:104330000721CA094272C1F380128272C1F340128E
:10434000C272C1F3001202734FF0000A80F80DA090
:104350002A460126D2F80880002FC8F30743C8F385
:1043600007294FEA186218BF012F02D0022F31D05F
:1043700043E08907090D01610CF0FF01D0F810C07E
:104380004CEA810101610169C2F3C20C41EA921158
:10439000016180F814C002F0070141755909817567
:1043A000C3F38201C1759907490F0176027E494620
:1043B00042EAD9120276026990F818C0037A521CB8
:1043C0000CF1020C06FA03F302FA0CF25A4383646E
:1043D000426412E04FEA8C61890A0161016941EA95
:1043E00002210161026949461A4302610269521CB5
:1043F000D20442644FF400728264C1F380124276A8
:104400008906490E8176827E08F0FF0142EAD112C8
:10441000827601F07F01C176EA68110ECB0903773D
:10442000C1F341134377C1F3820383778907090FEF
:10443000C177C37FC2F3074143EA9113C377C1F346
:10444000401380F8203080F821A001F0010180F8AD
:104450002210C2F30721CB0980F82330C1F3801367
:1044600080F82430C1F3401380F82530C1F30013E5
:1044700080F82630C1F3810380F8273001F0030172
:1044800080F82810C2F3460180F8291080F82A60CD
:10449000524A11680B0E80F82C30C1F307431B02FF
:1044A000C385B0F82EC0C1F307234CEA0303C385CC
:1044B000090601635168D0F830C00B0E4CEA034383
:1044C0000363D0F830C0C1F307434CEA032303630E
:1044D000D0F830C0C1F307234CEA0303036380F82C
:1044E000341091680B0E80F83530C1F307431B067A
:1044F0008363D0F838C0C1F307234CEA03438363D6
:10450000836BC9B243EA01218163D168836B43EABB
:104510001162826390F83C30C1F3074243EA121300
:1045200080F83C301207120DC287C38FC1F30722F7
:104530001A43C287C1F3460180F8401080F84160F9
:104540002749406C08602046BDE8F00770472DE918
:10455000F14F002682B03046FFF73EF910F0007FA1
:104560001EBF0E2003B0BDE8F08F0024144D00964E
:104570004FF00809019610204027C5F80090C5E9C2
:1045800001074FF48068C5E903682846FFF706F97C
:104590001020FFF7D9FC2A281CBF03B0BDE8F08F1C
:1045A00009488068000428603720C5E90107C5E98B
:1045B00003680348FFF7F2F83720FFF7C5FC11E066
:1045C000F8010020008001403C0000200010014064
:1045D00000140140E0010020C0010020D0010020B3
:1045E000180000202A281CBF03B0BDE8F08FFB494B
:1045F000FB48C0E90019302181600221C0E903169F
:1046000001214161FFF7EDF83320C5E90060C5F8ED
:104610001080C5E90276F348FFF7C0F83320FFF7B2
:1046200093FC2A281CBF03B0BDE8F08FDFF8B893D5
:10463000D9F8340040F22A6A10EA0A0F08BFEB46A4
:104640000FD100BF4FF40010FFF710F920B1FFF7B2
:10465000EAF84BF82400641CD9F8340010EA0A0F79
:10466000F0D00820FFF702F930B10820FFF708F971
:1046700003B00420BDE8F08F0220FFF7F7F830B157
:104680000220FFF7FDF803B00220BDE8F08F2020E4
:10469000FFF7ECF830B12020FFF7F2F803B0062066
:1046A000BDE8F08F4FF40070FFF7E0F838B14FF439
:1046B0000070FFF7E5F803B00720BDE8F08F40F287
:1046C000FF50FFF7DDF800980299062400BA01298F
:1046D00024D010F4803F48D0C4488068000428608B
:1046E0003720C5E90107C5E90368BE48FFF756F85A
:1046F0003720FFF729FC2A281CBF03B0BDE8F08F44
:10470000C5E90064C5F81080C5E90276B548FFF731
:1047100045F803B00620BDE8F04F15E410F4802FF3
:1047200023D0B2488068000428603720C5E901071B
:10473000C5E90368AB48FFF731F83720FFF704FC01
:104740002A281CBF03B0BDE8F08F0220C5F81080F6
:10475000C5E90004C5E90276A248FFF71FF803B0D7
:104760000620BDE8F04FFFF7EFBB03B02520BDE802
:10477000F08F2DE9F04101469C482A264068032825
:1047800014D000281CBF012802282DD1B1F5805F6C
:104790000CD000240127964DB1F5006F09D0002000
:1047A000FFF7D5FE06462A2815D01DE02720BDE8D4
:1047B000F0810120FFF7CBFE06462A2814D12F7086
:1047C0006C604FF40060AC60C5E9034088486C61E0
:1047D000FEF7A4FF08E02F706C60AC60EC602C6109
:1047E00083486C61FEF79AFF3046BDE8F0812A21CC
:1047F000002818BF012805D0022818BF262101D0A3
:1048000008467047794AD060FAE7764910B50860E3
:1048100007204860402088600020C8604FF4806016
:1048200008610846FEF7BAFFBDE810400720FFF711
:104830008BBB2DE9F04F8BB082460C00154631D072
:10484000DFF8A8812A2088F800000026C8F8186040
:10485000634F6248C8F81060C7E90006BE60FE609A
:104860003E6138467E61FEF7BCFF0020FEF793FFF5
:104870000020FEF7B1FF10F0007F1EBF0E200BB02E
:10488000BDE8F08F59484068022808BF4FF4007512
:1048900005D0681E4FEA4A2AB0F5006F02D2681EA2
:1048A000054203D00BB02620BDE8F08F28464FF01C
:1048B0000009012D06D0400809F1010101F0FF09AE
:1048C0000128F8D1DFF81C8110204FF4806BC8E973
:1048D00000504020C8F810B0C8E902064046FEF774
:1048E0005DFF1020FFF730FB2A281CBF0BB0BDE88E
:1048F000F08F3A48C7E900054FEA0910B860022076
:10490000C7E90306012078613548FEF76AFF374F93
:1049100011207C62C7E90456C8E900A04020C8F80D
:1049200010B0C8E902062F48FEF738FF1120FFF744
:104930000BFB2A281CBF0BB0BDE8F08FF8680228DB
:1049400003D0012865D080B3A3E0274E706B40F2FE
:104950002A67384213D100BF4FF40040FEF786FFAC
:10496000002818BF002507D0FEF75DFF44F825009A
:104970006D1C082DF8D32034706B3842ECD0082021
:10498000FEF774FF30B10820FEF77AFF0BB0042069
:10499000BDE8F08F0220FEF769FF38B10220FEF774
:1049A0006FFF0BB00220BDE8F08F43E02020FEF740
:1049B0005DFF30B12020FEF763FF0BB00620BDE89D
:1049C000F08F4FF40070FEF751FF98B14FF4007074
:1049D000FEF756FF07200BB0BDE8F08FFFFF0F007A
:1049E0000C020020F8010020008001403C00002063
:1049F000E00100204FF40010FEF738FF20B1FEF771
:104A000012FF44F8040BF5E740F2FF50FEF738FFC1
:104A10003FE0012148F22A30FEF7B0FEB8690028D5
:104A200004BF38782A28F9D038782A2818BF38786F
:104A3000D1D12EE0012140F22A30FEF79FFE012065
:104A4000FEF7A9FEFF48FEF775F8FF4F0021384634
:104A5000FEF747F8FD48CDE90004A808CDE902605B
:104A60008020CDE90460800006908000CDE9070633
:104A70008000CDE9090669463846FEF707F80121AE
:104A80003846FEF72EF8F24C2046FEF742F8002892
:104A9000FAD000209FE72DE9F04F8BB082460C0042
:104AA00015469B4653D0EB4E2A2030700027B76145
:104AB000EA48E9493761C0E900178760C7600761C4
:104AC0004761FEF78EFE0020FEF765FE0020FEF730
:104AD00083FE10F0007F1EBF0E200BB0BDE8F08FEC
:104AE0007068022808BF4FF4007505D0681E4FEAB1
:104AF0004A2AB0F5006F2AD2681E054227D12846FF
:104B00004FF00009012D06D0400809F1010101F024
:104B1000FF090128F8D1D2481021C0E900514021F5
:104B2000C0E9021709010161FEF738FE1020FFF706
:104B30000BFA80462A281CBF0BB0BDE8F08FBBF1F2
:104B4000010F6DD90BFB05F5B5F1007F03D30BB059
:104B50002620BDE8F08F01227462C048C6E90452E5
:104B6000BD49C0E900154FEA091181600221426187
:104B7000C0E90317FEF735FEDFF8E4921220C9E919
:104B800000A04020C9E902070001C9F8100048460A
:104B9000FEF704FE1220FFF7D7F980462A281CBF33
:104BA0000BB0BDE8F08FF068022803D0012879D05F
:104BB000A8B3C1E0DFF8ACA2DAF8340040F22A3B37
:104BC00010EA0B0F15D100BF4FF40040FEF74EFE68
:104BD000002818BF002507D0FEF725FE44F8250061
:104BE0006D1C082DF8D32034DAF8340010EA0B0FCE
:104BF000EAD00820FEF73AFE30B10820FEF740FE6A
:104C00000BB00420BDE8F08F0220FEF72FFE40B16C
:104C10000220FEF735FE02200BB0BDE8F08F50E019
:104C20008AE02020FEF722FE20B12020FEF728FE99
:104C30000620F1E74FF40070FEF718FE28B14FF49C
:104C40000070FEF71DFE0720E6E74FF40010FEF7A8
:104C50000DFE20B1FEF7E7FD44F8040BF5E74FF435
:104C60008070FEF703FEB8B1706800281CBF0228F0
:104C7000012811D10C20C9E900704020C9E90207C0
:104C80000001C9F810007648FEF788FD0C20FFF7F8
:104C90005BF980462A28BFD140F2FF50FEF7F0FDB5
:104CA0004AE0FFE7012148F22A30FEF767FDB069CC
:104CB000002804BF30782A28F9D030782A2839D142
:104CC0003AE0012140F22A30FEF758FD0120FEF7BC
:104CD00062FD5C48FDF72EFFDFF86C91002148462D
:104CE000FDF7FFFE5948CDE90004A808CDE90270A0
:104CF0008020CDE90470800006908000CDE9070790
:104D00008000CDE9090769464846FDF7BFFE01214D
:104D10004846FDF7E6FE4E4C2046FDF7FAFE002819
:104D2000FAD0B069002804BF30782A28F9D030784A
:104D30002A2801D030786FE740466DE770B5044609
:104D400044482A2580680104454801600D214160DE
:104D5000402181600021C1604FF480610161FEF754
:104D60001DFD4049486B10F0450F03D1486B10F012
:104D7000450FFBD010F0040F05D003240420FEF7EC
:104D80007FFD204670BD10F0010F05D001242046A4
:104D9000FEF776FD204670BDFEF71AFD0D2837D1CF
:104DA00040F2FF50FEF76CFD0020FEF715FDC0F34A
:104DB000432121702C49084274D010F0004F1CBFD1
:104DC0001C2070BD10F0804F1CBF092070BD10F07A
:104DD000005F1CBF0A2070BD10F0805F1CBF0B205D
:104DE00070BD10F0006F1CBF0C2070BD10F0806F04
:104DF0001CBF0D2070BD10F0807F1CBF0E2070BD49
:104E000010F4000F1CBF0F2070BD10F4800F01D0F4
:104E1000102070BD10F4001F1CBF112070BD10F4D5
:104E2000801F1CBF122070BD10F4002F1CBF132068
:104E300070BD10F4802F1CBF142070BD10F4003F13
:104E400014E0000000F000104404024080800140A3
:104E5000002000103C000020FFFF0F000C0200208B
:104E6000F80100200080014008E0FFFD1CBF152074
:104E700070BD10F4803F1CBF162070BD10F4004FB1
:104E80001CBF172070BD10F4804F1CBF182070BDD0
:104E900010F4005F1CBF192070BD10F0080F1CBF7C
:104EA0001A2070BD284670BD2DE9F04F8DB04FF02F
:104EB000000983460C0016468DF82C904D4630D0E4
:104EC000FF4F2A203870C7F81890FF48FD49C7F8EF
:104ED0001090C0E90019C0F80890C0F80C90C0F814
:104EE0001090C0F81490FEF77CFC0020FEF753FCF5
:104EF0000020FEF771FC10F0007F1EBF0E200DB0E9
:104F0000BDE8F08F7868022808BF4FF4007605D01E
:104F1000701E4FEA4B2BB0F5006F02D2701E064296
:104F200003D00DB02620BDE8F08F30464FF0000AC8
:104F3000012E06D040080AF1010101F0FF0A012804
:104F4000F8D1DFF888831020C8E900604020C8F855
:104F500008000020C8F80C004FF48060C8F810006A
:104F60004046FEF71BFC1020FEF7EEFF2A281CBF70
:104F70000DB0BDE8F08FD2484FF0400980680004C2
:104F8000C8F800000D20C8E901090020C8F80C008D
:104F90004FF48060C8F81000CC48FEF7FFFB0D20EE
:104FA000FEF7D2FF2A281CBF0DB0BDE8F08F00200D
:104FB000FEF712FCC34F4FF00009DFF8048319E03D
:104FC000D8F808007F1E0104C04801600D2141602F
:104FD0004021C0E9021909010161FEF7DFFB0D2044
:104FE000FEF7B2FF2A281CBF0DB0BDE8F08F0020ED
:104FF000FEF7F2FB10F4807F2CD06FB3B34818217A
:10500000C0E900B14021C0E9021909010161FEF7C0
:10501000C5FB1820FEF798FF2A281CBF0DB0BDE87D
:10502000F08FA849C8F82040A748C8E90469C0E93A
:1050300000164FEA0A11C0E902190121C0E90491E2
:10504000FEF7CFFBD8F80C00022809D001286DD05C
:10505000F0B3C2E0002FB3D10DB02920BDE8F08F2E
:10506000DFF86C92D9F8340040F21A6A10EA0A0F9D
:105070002CD100BF4FF48040FEF7F8FB08B3D8F8FE
:105080001000401B202828BF002611D210F0030F6B
:105090000EBF87088008471C0026002F11D9206802
:1050A000FEF7C4FB761C241D2D1DB742F7D808E07F
:1050B00054F82600FEF7BAFB761C082EF8D32034ED
:1050C0002035D9F8340010EA0A0FD3D0082000E0C8
:1050D0003FE0FEF7CBFB30B10820FEF7D1FB0DB06F
:1050E0000420BDE8F08F0220FEF7C0FB30B10220A3
:1050F000FEF7C6FB0DB00220BDE8F08F1020FEF7D2
:10510000B5FB30B11020FEF7BBFB0DB00520BDE8AC
:10511000F08F4FF40070FEF7A9FBF0B34FF400706E
:10512000FEF7AEFB0DB00720BDE8F08F012144F281
:105130001A30FEF723FB00BFD8F81800002804BF80
:1051400098F800002A28F7D098F800002A283FD1C4
:1051500043E0012140F21A30FEF710FB5D48FDF7F5
:10516000E9FC5D4D00212846FDF7BBFC5B48CDE91D
:10517000000410200290B008CDE9030980200590BA
:10518000800006908000CDE907098000CDE909097B
:1051900069462846FDF77AFC00E01EE0012128461A
:1051A000FDF79FFC0120FEF7F6FA4D4C2046FDF777
:1051B000B0FC0028FAD000BFD8F81800002804BFBF
:1051C00098F800002A28F7D098F800002A2804D080
:1051D00098F800000DB0BDE8F08F40F2FF50FEF7E8
:1051E0004FFB0BA8FFF7AAFD02E00BA8FFF7A6FDF7
:1051F0002A281CBF0DB0BDE8F08F9DF82C100729A0
:1052000018BF0629F1D00DB0BDE8F08F2DE9F04FA1
:105210008DB04FF0000681460C0017469A468DF877
:105220002C6035467DD0DFF898B02A208BF800003E
:10523000CBF8186024482349CBF81060C0E9001669
:105240008660C66006614661FEF7CBFA0020FEF775
:10525000A2FA0020FEF7C0FA10F0007F1EBF0E2059
:105260000DB0BDE8F08FDBF80400022808BF4FF452
:10527000007705D0781E4FEA4929B0F5006F59D262
:10528000781E074256D138464FF00008012F06D04D
:10529000400808F1010101F0FF080128F8D10B488E
:1052A0001021C0E90071402181600021C1604FF4EC
:1052B00080610161FEF772FA1020FEF745FE11E0F1
:1052C0003C000020FFFF0F000C020020F80100202E
:1052D0000080014000F00010440402408080014042
:1052E000002000102A281CBF0DB0BDE8F08FFE483A
:1052F000FE4E4FF4806B8068000430600D207060BB
:105300004020B0600020C6E9030B3046FEF746FAA5
:105310000D20FEF719FE2A281CBF0DB0BDE8F08F46
:1053200000E007E0BAF1010F67D90AFB07F7B7F110
:10533000007F03D30DB02620BDE8F08FEA48406817
:1053400000281CBF0128022828D1E74880680004F3
:105350003060372070604020B0600020C6E9030B49
:10536000E248FEF71BFA3720FEF7EEFD2A281CBFA5
:105370000DB0BDE8F08F1720C6E900A04020B06056
:105380000020C6E9030BD948FEF708FA1720FEF7FC
:10539000DBFD2A281CBF0DB0BDE8F08FD3481921D2
:1053A000C0E9009140214FF00009C0E9021909014C
:1053B0000161FEF7F3F91920FEF7C6FD2A281CBF8C
:1053C0000DB0BDE8F08FDFF820A30121C948CAF86D
:1053D0002040CAE90471C64AC0E900274FEA081212
:1053E000C0E90229C0E90491FEF7FBF9DAF80C00E4
:1053F000022803D001287DD0F0B3DCE0DFF8F8828A
:10540000D8F8340040F21A3B10EA0B0F2CD100BF41
:105410004FF48040FEF72AFA08B3DAF81000401B78
:10542000202828BF002609D354F82600FEF7FEF9ED
:10543000761C082EF8D32034203510E010F0030F2E
:105440000EBF87088008471C0026002F07D9206858
:10545000FEF7ECF9761C241D2D1DB742F7D8D8F8BD
:10546000340010EA0B0FD3D00820FEF7FFF940B14B
:105470000820FEF705FA00E05BE00DB00420BDE86F
:10548000F08F0220FEF7F2F930B10220FEF7F8F9B2
:105490000DB00220BDE8F08F1020FEF7E7F930B123
:1054A0001020FEF7EDF90DB00520BDE8F08F4FF4A8
:1054B0000070FEF7DBF938B14FF40070FEF7E0F949
:1054C0000DB00720BDE8F08F4FF48070FEF7CEF9E5
:1054D00070B3DAF8040000281CBF012802286AD142
:1054E00082480C21C0E900914021C0E9021909015C
:1054F000016100E00AE0FEF751F90C20FEF724FDFF
:105500002A281CBF0DB0BDE8F08F54E0012144F201
:105510001A30FEF733F900BFDAF81800002804BF8C
:105520009AF800002A28F7D09AF800002A283DD1DE
:1055300041E0012140F21A30FEF720F90120FEF788
:105540002AF96E48FDF7F6FA6D4D00212846FDF761
:10555000C8FA6C48CDE9000410200290B808CDE9E3
:10556000030980200590800006908000CDE907099E
:105570008000CDE9090969462846FDF787FA01212F
:105580002846FDF7AEFA604C2046FDF7C2FA002827
:10559000FAD000BFDAF81800002804BF9AF800001B
:1055A0002A28F7D09AF800002A2804D09AF8000098
:1055B0000DB0BDE8F08F40F2FF50FEF761F90BA887
:1055C000FFF7BCFB02E00BA8FFF7B8FB2A281CBFC3
:1055D0000DB0BDE8F08F9DF82C10072918BF0629E3
:1055E000F1D00DB0BDE8F08F4348406B10F440504F
:1055F00018BF0120704710B500213C480C22C0E9BB
:1056000000124022C0E9022111010161FEF7C6F833
:10561000BDE810400C20FEF797BC2DE9F84F8346FB
:105620003A4800248DF8004040684FF0200A884630
:1056300027461AEA105F04BF2520BDE8F88F2E48E0
:1056400040683349C0B2801CB1FBF0F50020FEF782
:10565000C3F810F0007F1CBF0E20BDE8F88F224871
:10566000224E4FF040094068022808D04FEA5B2BD9
:105670004FEA582800281CBF0128022822D1C6F86A
:1056800000B0C6E901A94FF4806AC6E9037A174859
:10569000FEF784F82020FEF757FC2A2818BFBDE843
:1056A000F88F2120C6F810A0C6E90080C6E902974D
:1056B0000E48FEF773F82120FEF746FC2A2818BF93
:1056C000BDE8F88F2620C6F80890C6E900704FF4B0
:1056D0008060C6E903700548FEF760F82620FEF7F3
:1056E00033FC2A2816E000003C000020F8010020CE
:1056F000FFFF0F000C0200200080014000F00010AE
:10570000440402408080014000200010C0010020BD
:105710004019010018BFBDE8F88FAC4238BF641CC7
:10572000FBD36846FFF70AFB2A2818BFBDE8F88FAD
:105730009DF80010072918BF0629F2D0BDE8F88FA0
:10574000002804BF2620704770B50446DB48DC49BA
:105750008068000408600D204860402088600020B8
:10576000C8604FF4806008610846FEF717F80D2006
:10577000FEF7EAFB05462A2818BF70BD0020FEF799
:105780002BF82060284670BD2DE9F041044600202A
:10579000FEF722F810F0007F1CBF0E20BDE8F0815C
:1057A0004027C74D10204FF48068C5E900700026DF
:1057B000C5F81080C5E902762846FDF7EFFF1020F6
:1057C000FEF7C2FB2A2818BFBDE8F081BB488068FD
:1057D000000428603720C5E90107C5E90368B84817
:1057E000FDF7DCFF3720FEF7AFFB2A2818BFBDE826
:1057F000F081B449B448C0E90017602181600221FA
:10580000C0E9031601214161FDF7EBFF0D20C5E959
:105810000060C5F81080C5E90276A948FDF7BEFF13
:105820000D20FEF791FB06462A2818BFBDE8F0813F
:10583000A64F786B40F22A6810EA080F14D100BF17
:105840004FF40040FEF712F8002818BF002507D0DB
:10585000FDF7E9FF44F825006D1C082DF8D320342E
:10586000786B10EA080FEBD00820FDF7FFFF28B196
:105870000820FEF705F80420BDE8F0810220FDF7BE
:10588000F5FF28B10220FDF7FBFF0220BDE8F08103
:105890002020FDF7EBFF28B12020FDF7F1FF0620C7
:1058A000BDE8F0814FF40070FDF7E0FF30B14FF438
:1058B0000070FDF7E5FF0720BDE8F0814FF4001010
:1058C000FDF7D4FF20B1FDF7AEFF44F8040BF5E778
:1058D00040F2FF50FDF7D4FFA4F14000002103681F
:1058E000021D1BBA036043680830891C1BBA136091
:1058F0001029F4D33046BDE8F08170B56F4D002417
:10590000E868012846D1C003FDF7BDFF78B100BFAC
:10591000FDF789FF696A41F82400641C082CF7D35D
:10592000686A20306862E8692030E86132E04FF44C
:105930008040FDF7A8FF68B3E9692869411A20296A
:105940001AD2E969411A11F0030FE969A0EB0100CD
:105950000EBF86088008461C002E1BD9286A0068E6
:10596000FDF764FF286A641C001D2862E869001DB9
:10597000E861A642F2D80DE0286A50F82400FDF74D
:1059800055FF641C082CF7D3286A20302862E86988
:105990002030E8614FF48070FDF775FF0024B8B344
:1059A000E86890B14FF40010FDF760FF68B1E86956
:1059B0002969814209D9FDF736FF696A0860081D27
:1059C0006862E869001DE861ECE76869012818BFB2
:1059D0002A200ED028704FF48070FDF75EFF002162
:1059E0004CF23A30FDF7CAFE0120A861EC6128783C
:1059F00070BD33480C21C0E900414021C0E90214C8
:105A000009010161FDF7CAFE0C20FEF79DFAE1E7EE
:105A1000FFE70220FDF737FF58B10220FDF73DFFF9
:105A200000214CF23A30FDF7A9FEEC61022028700B
:105A300070BD0820FDF727FF58B10820FDF72DFFA6
:105A400000214CF23A30FDF799FEEC6104202870F9
:105A500070BD2020FDF717FF58B12020FDF71DFF76
:105A600000214CF23A30FDF789FEEC6106202870E7
:105A700070BD1020FDF707FF58B11020FDF70DFF96
:105A800000214CF23A30FDF779FEEC6105202870D8
:105A900070BD4FF40070FDF7F6FE002804BF2A2009
:105AA00070BD4FF40070FDF7F8FE00214CF23A3063
:105AB000FDF764FEEC610720287070BD3C000020FB
:105AC000F8010020FFFF0F000C02002000800140C1
:105AD00030B5FF48ADF5017D0568FF2D22D34FF4A9
